{
  "contractName": "ElectoralBond",
  "abi": [
    {
      "inputs": [
        {
          "internalType": "string",
          "name": "_name",
          "type": "string"
        },
        {
          "internalType": "string",
          "name": "_symbol",
          "type": "string"
        },
        {
          "internalType": "address",
          "name": "_owner",
          "type": "address"
        }
      ],
      "stateMutability": "nonpayable",
      "type": "constructor"
    },
    {
      "inputs": [],
      "name": "getName",
      "outputs": [
        {
          "internalType": "string",
          "name": "",
          "type": "string"
        }
      ],
      "stateMutability": "view",
      "type": "function",
      "constant": true
    },
    {
      "inputs": [],
      "name": "getSymbol",
      "outputs": [
        {
          "internalType": "string",
          "name": "",
          "type": "string"
        }
      ],
      "stateMutability": "view",
      "type": "function",
      "constant": true
    },
    {
      "inputs": [
        {
          "internalType": "address",
          "name": "account",
          "type": "address"
        }
      ],
      "name": "balanceOf",
      "outputs": [
        {
          "internalType": "uint256",
          "name": "",
          "type": "uint256"
        }
      ],
      "stateMutability": "view",
      "type": "function",
      "constant": true
    },
    {
      "inputs": [
        {
          "internalType": "uint256",
          "name": "value",
          "type": "uint256"
        }
      ],
      "name": "mint",
      "outputs": [],
      "stateMutability": "nonpayable",
      "type": "function"
    },
    {
      "inputs": [
        {
          "internalType": "uint256",
          "name": "value",
          "type": "uint256"
        }
      ],
      "name": "buyToken",
      "outputs": [],
      "stateMutability": "payable",
      "type": "function",
      "payable": true
    },
    {
      "inputs": [],
      "name": "getAllDonations",
      "outputs": [
        {
          "internalType": "address[]",
          "name": "",
          "type": "address[]"
        },
        {
          "internalType": "uint256[]",
          "name": "",
          "type": "uint256[]"
        }
      ],
      "stateMutability": "view",
      "type": "function",
      "constant": true
    }
  ],
  "bytecode": "0x60806040523480156200001157600080fd5b50604051620015a8380380620015a8833981810160405281019062000037919062000347565b806000806101000a81548173ffffffffffffffffffffffffffffffffffffffff021916908373ffffffffffffffffffffffffffffffffffffffff160217905550633b9aca00600160008373ffffffffffffffffffffffffffffffffffffffff1673ffffffffffffffffffffffffffffffffffffffff168152602001908152602001600020819055508260039081620000d091906200062c565b508160049081620000e291906200062c565b506002819080600181540180825580915050600190039060005260206000200160009091909190916101000a81548173ffffffffffffffffffffffffffffffffffffffff021916908373ffffffffffffffffffffffffffffffffffffffff16021790555050505062000713565b6000604051905090565b600080fd5b600080fd5b600080fd5b600080fd5b6000601f19601f8301169050919050565b7f4e487b7100000000000000000000000000000000000000000000000000000000600052604160045260246000fd5b620001b8826200016d565b810181811067ffffffffffffffff82111715620001da57620001d96200017e565b5b80604052505050565b6000620001ef6200014f565b9050620001fd8282620001ad565b919050565b600067ffffffffffffffff82111562000220576200021f6200017e565b5b6200022b826200016d565b9050602081019050919050565b60005b83811015620002585780820151818401526020810190506200023b565b60008484015250505050565b60006200027b620002758462000202565b620001e3565b9050828152602081018484840111156200029a576200029962000168565b5b620002a784828562000238565b509392505050565b600082601f830112620002c757620002c662000163565b5b8151620002d984826020860162000264565b91505092915050565b600073ffffffffffffffffffffffffffffffffffffffff82169050919050565b60006200030f82620002e2565b9050919050565b620003218162000302565b81146200032d57600080fd5b50565b600081519050620003418162000316565b92915050565b60008060006060848603121562000363576200036262000159565b5b600084015167ffffffffffffffff8111156200038457620003836200015e565b5b6200039286828701620002af565b935050602084015167ffffffffffffffff811115620003b657620003b56200015e565b5b620003c486828701620002af565b9250506040620003d78682870162000330565b9150509250925092565b600081519050919050565b7f4e487b7100000000000000000000000000000000000000000000000000000000600052602260045260246000fd5b600060028204905060018216806200043457607f821691505b6020821081036200044a5762000449620003ec565b5b50919050565b60008190508160005260206000209050919050565b60006020601f8301049050919050565b600082821b905092915050565b600060088302620004b47fffffffffffffffffffffffffffffffffffffffffffffffffffffffffffffffff8262000475565b620004c0868362000475565b95508019841693508086168417925050509392505050565b6000819050919050565b6000819050919050565b60006200050d620005076200050184620004d8565b620004e2565b620004d8565b9050919050565b6000819050919050565b6200052983620004ec565b62000541620005388262000514565b84845462000482565b825550505050565b600090565b6200055862000549565b620005658184846200051e565b505050565b5b818110156200058d57620005816000826200054e565b6001810190506200056b565b5050565b601f821115620005dc57620005a68162000450565b620005b18462000465565b81016020851015620005c1578190505b620005d9620005d08562000465565b8301826200056a565b50505b505050565b600082821c905092915050565b60006200060160001984600802620005e1565b1980831691505092915050565b60006200061c8383620005ee565b9150826002028217905092915050565b6200063782620003e1565b67ffffffffffffffff8111156200065357620006526200017e565b5b6200065f82546200041b565b6200066c82828562000591565b600060209050601f831160018114620006a457600084156200068f578287015190505b6200069b85826200060e565b8655506200070b565b601f198416620006b48662000450565b60005b82811015620006de57848901518255600182019150602085019450602081019050620006b7565b86831015620006fe5784890151620006fa601f891682620005ee565b8355505b6001600288020188555050505b505050505050565b610e8580620007236000396000f3fe6080604052600436106100555760003560e01c8063150704011461005a57806317d7de7c146100855780632d296bf1146100b057806338a59a07146100cc57806370a08231146100f8578063a0712d6814610135575b600080fd5b34801561006657600080fd5b5061006f61015e565b60405161007c91906108e8565b60405180910390f35b34801561009157600080fd5b5061009a6101f0565b6040516100a791906108e8565b60405180910390f35b6100ca60048036038101906100c59190610945565b610282565b005b3480156100d857600080fd5b506100e1610507565b6040516100ef929190610b20565b60405180910390f35b34801561010457600080fd5b5061011f600480360381019061011a9190610b83565b610707565b60405161012c9190610bbf565b60405180910390f35b34801561014157600080fd5b5061015c60048036038101906101579190610945565b610750565b005b60606004805461016d90610c09565b80601f016020809104026020016040519081016040528092919081815260200182805461019990610c09565b80156101e65780601f106101bb576101008083540402835291602001916101e6565b820191906000526020600020905b8154815290600101906020018083116101c957829003601f168201915b5050505050905090565b6060600380546101ff90610c09565b80601f016020809104026020016040519081016040528092919081815260200182805461022b90610c09565b80156102785780601f1061024d57610100808354040283529160200191610278565b820191906000526020600020905b81548152906001019060200180831161025b57829003601f168201915b5050505050905090565b80600160008060009054906101000a900473ffffffffffffffffffffffffffffffffffffffff1673ffffffffffffffffffffffffffffffffffffffff1673ffffffffffffffffffffffffffffffffffffffff168152602001908152602001600020541015610325576040517f08c379a000000000000000000000000000000000000000000000000000000000815260040161031c90610c86565b60405180910390fd5b60008054906101000a900473ffffffffffffffffffffffffffffffffffffffff1673ffffffffffffffffffffffffffffffffffffffff166108fc349081150290604051600060405180830381858888f1935050505015801561038b573d6000803e3d6000fd5b506000600160003373ffffffffffffffffffffffffffffffffffffffff1673ffffffffffffffffffffffffffffffffffffffff1681526020019081526020016000205403610437576002339080600181540180825580915050600190039060005260206000200160009091909190916101000a81548173ffffffffffffffffffffffffffffffffffffffff021916908373ffffffffffffffffffffffffffffffffffffffff1602179055505b80600160003373ffffffffffffffffffffffffffffffffffffffff1673ffffffffffffffffffffffffffffffffffffffff16815260200190815260200160002060008282546104869190610cd5565b9250508190555080600160008060009054906101000a900473ffffffffffffffffffffffffffffffffffffffff1673ffffffffffffffffffffffffffffffffffffffff1673ffffffffffffffffffffffffffffffffffffffff16815260200190815260200160002060008282546104fd9190610d09565b9250508190555050565b606080600060028054905067ffffffffffffffff81111561052b5761052a610d3d565b5b6040519080825280602002602001820160405280156105595781602001602082028036833780820191505090505b509050600060028054905067ffffffffffffffff81111561057d5761057c610d3d565b5b6040519080825280602002602001820160405280156105ab5781602001602082028036833780820191505090505b50905060005b6002805490508110156106fa57600281815481106105d2576105d1610d6c565b5b9060005260206000200160009054906101000a900473ffffffffffffffffffffffffffffffffffffffff168382815181106106105761060f610d6c565b5b602002602001019073ffffffffffffffffffffffffffffffffffffffff16908173ffffffffffffffffffffffffffffffffffffffff1681525050600160006002838154811061066257610661610d6c565b5b9060005260206000200160009054906101000a900473ffffffffffffffffffffffffffffffffffffffff1673ffffffffffffffffffffffffffffffffffffffff1673ffffffffffffffffffffffffffffffffffffffff168152602001908152602001600020548282815181106106db576106da610d6c565b5b60200260200101818152505080806106f290610d9b565b9150506105b1565b5081819350935050509091565b6000600160008373ffffffffffffffffffffffffffffffffffffffff1673ffffffffffffffffffffffffffffffffffffffff168152602001908152602001600020549050919050565b60008054906101000a900473ffffffffffffffffffffffffffffffffffffffff1673ffffffffffffffffffffffffffffffffffffffff163373ffffffffffffffffffffffffffffffffffffffff16146107de576040517f08c379a00000000000000000000000000000000000000000000000000000000081526004016107d590610e2f565b60405180910390fd5b80600160008060009054906101000a900473ffffffffffffffffffffffffffffffffffffffff1673ffffffffffffffffffffffffffffffffffffffff1673ffffffffffffffffffffffffffffffffffffffff168152602001908152602001600020600082825461084e9190610cd5565b9250508190555050565b600081519050919050565b600082825260208201905092915050565b60005b83811015610892578082015181840152602081019050610877565b60008484015250505050565b6000601f19601f8301169050919050565b60006108ba82610858565b6108c48185610863565b93506108d4818560208601610874565b6108dd8161089e565b840191505092915050565b6000602082019050818103600083015261090281846108af565b905092915050565b600080fd5b6000819050919050565b6109228161090f565b811461092d57600080fd5b50565b60008135905061093f81610919565b92915050565b60006020828403121561095b5761095a61090a565b5b600061096984828501610930565b91505092915050565b600081519050919050565b600082825260208201905092915050565b6000819050602082019050919050565b600073ffffffffffffffffffffffffffffffffffffffff82169050919050565b60006109c98261099e565b9050919050565b6109d9816109be565b82525050565b60006109eb83836109d0565b60208301905092915050565b6000602082019050919050565b6000610a0f82610972565b610a19818561097d565b9350610a248361098e565b8060005b83811015610a55578151610a3c88826109df565b9750610a47836109f7565b925050600181019050610a28565b5085935050505092915050565b600081519050919050565b600082825260208201905092915050565b6000819050602082019050919050565b610a978161090f565b82525050565b6000610aa98383610a8e565b60208301905092915050565b6000602082019050919050565b6000610acd82610a62565b610ad78185610a6d565b9350610ae283610a7e565b8060005b83811015610b13578151610afa8882610a9d565b9750610b0583610ab5565b925050600181019050610ae6565b5085935050505092915050565b60006040820190508181036000830152610b3a8185610a04565b90508181036020830152610b4e8184610ac2565b90509392505050565b610b60816109be565b8114610b6b57600080fd5b50565b600081359050610b7d81610b57565b92915050565b600060208284031215610b9957610b9861090a565b5b6000610ba784828501610b6e565b91505092915050565b610bb98161090f565b82525050565b6000602082019050610bd46000830184610bb0565b92915050565b7f4e487b7100000000000000000000000000000000000000000000000000000000600052602260045260246000fd5b60006002820490506001821680610c2157607f821691505b602082108103610c3457610c33610bda565b5b50919050565b7f496e73756666696369656e7420546f6b656e7300000000000000000000000000600082015250565b6000610c70601383610863565b9150610c7b82610c3a565b602082019050919050565b60006020820190508181036000830152610c9f81610c63565b9050919050565b7f4e487b7100000000000000000000000000000000000000000000000000000000600052601160045260246000fd5b6000610ce08261090f565b9150610ceb8361090f565b9250828201905080821115610d0357610d02610ca6565b5b92915050565b6000610d148261090f565b9150610d1f8361090f565b9250828203905081811115610d3757610d36610ca6565b5b92915050565b7f4e487b7100000000000000000000000000000000000000000000000000000000600052604160045260246000fd5b7f4e487b7100000000000000000000000000000000000000000000000000000000600052603260045260246000fd5b6000610da68261090f565b91507fffffffffffffffffffffffffffffffffffffffffffffffffffffffffffffffff8203610dd857610dd7610ca6565b5b600182019050919050565b7f4f6e6c79206f776e65722063616e206d696e7400000000000000000000000000600082015250565b6000610e19601383610863565b9150610e2482610de3565b602082019050919050565b60006020820190508181036000830152610e4881610e0c565b905091905056fea264697066735822122039812ca1fd78ff5a94d32d109e0aff2e5786cf36f7cb988a349519eb38c95fd164736f6c63430008130033",
  "immutableReferences": {},
  "source": "// SPDX-License-Identifier: GPL-3.0\r\n\r\npragma solidity >=0.7.0 <0.9.0;\r\n\r\n// import \"@openzeppelin/contracts/token/ERC20/ERC20.sol\";\r\n\r\ncontract ElectoralBond {\r\n    \r\n    address private owner;\r\n    mapping (address => uint256) private balances;\r\n    address[] private totalDonators;\r\n\r\n    string private name;\r\n    string private symbol; \r\n\r\n    constructor(string memory _name, string memory _symbol, address _owner) {\r\n        owner = _owner;\r\n        balances[_owner] = 1000000000;\r\n        name = _name;\r\n        symbol = _symbol;\r\n        totalDonators.push(_owner);\r\n    }\r\n\r\n\r\n    function getName () public view returns (string memory) {\r\n        return name;\r\n    }\r\n\r\n    function getSymbol () public view returns (string memory) {\r\n        return symbol;\r\n    }\r\n\r\n    function balanceOf(address account) public view returns (uint256) {\r\n        return balances[account];\r\n    }\r\n\r\n    function transfer(address to, uint256 value) private returns (bool) {\r\n        require(balances[owner] >= value, \"Insufficient balance\");\r\n        balances[owner] -= value;\r\n        balances[to] += value;\r\n        return true;\r\n    }\r\n\r\n\r\n    function mint(uint256 value) public {\r\n        require(msg.sender == owner, \"Only owner can mint\");\r\n        balances[owner] += value;\r\n    }\r\n\r\n    function buyToken(uint256 value) public payable{\r\n        require(balances[owner] >= value, \"Insufficient Tokens\");\r\n        // require(msg.value == value * 10, \"Incorrect value\");\r\n        payable(owner).transfer(msg.value);\r\n        if(balances[msg.sender] == 0) {\r\n            totalDonators.push(msg.sender);\r\n        }\r\n        balances[msg.sender] += value;\r\n        balances[owner] -= value;\r\n    }\r\n\r\n    function getAllDonations() public view returns (address[] memory, uint256[] memory) {\r\n        \r\n        address[] memory addresses = new address[](totalDonators.length);\r\n        uint256[] memory values = new uint256[](totalDonators.length);\r\n        for(uint i = 0; i < totalDonators.length; i++) {\r\n            addresses[i] = totalDonators[i];\r\n            values[i] = balances[totalDonators[i]];\r\n        }\r\n\r\n        return (addresses, values);\r\n    }\r\n    \r\n}\r\n",
  "sourcePath": "D:\\electoral bonds blockchain\\blockchain\\contracts\\ElectoralBond.sol",
  "compiler": {
    "name": "solc",
    "version": "0.8.19+commit.7dd6d404.Emscripten.clang"
  },
  "schemaVersion": "3.4.16",
  "updatedAt": "2024-10-06T15:43:21.880Z",
  "networkType": "ethereum",
  "devdoc": {
    "kind": "dev",
    "methods": {},
    "version": 1
  },
  "userdoc": {
    "kind": "user",
    "methods": {},
    "version": 1
  }
}