{
  "contractName": "Enrollment",
  "abi": [
    {
      "inputs": [
        {
          "internalType": "address",
          "name": "",
          "type": "address"
        }
      ],
      "name": "politicalParty",
      "outputs": [
        {
          "internalType": "bool",
          "name": "",
          "type": "bool"
        }
      ],
      "stateMutability": "view",
      "type": "function",
      "constant": true
    },
    {
      "inputs": [
        {
          "internalType": "address",
          "name": "",
          "type": "address"
        }
      ],
      "name": "user",
      "outputs": [
        {
          "internalType": "bool",
          "name": "",
          "type": "bool"
        }
      ],
      "stateMutability": "view",
      "type": "function",
      "constant": true
    },
    {
      "inputs": [],
      "name": "EnrollAspoliticalParty",
      "outputs": [],
      "stateMutability": "nonpayable",
      "type": "function"
    },
    {
      "inputs": [],
      "name": "EnrollAsUser",
      "outputs": [],
      "stateMutability": "nonpayable",
      "type": "function"
    },
    {
      "inputs": [],
      "name": "IsPoliticalParty",
      "outputs": [
        {
          "internalType": "bool",
          "name": "",
          "type": "bool"
        }
      ],
      "stateMutability": "view",
      "type": "function",
      "constant": true
    },
    {
      "inputs": [],
      "name": "IsUser",
      "outputs": [
        {
          "internalType": "bool",
          "name": "",
          "type": "bool"
        }
      ],
      "stateMutability": "view",
      "type": "function",
      "constant": true
    }
  ],
  "bytecode": "0x608060405234801561001057600080fd5b506103ac806100206000396000f3fe608060405234801561001057600080fd5b50600436106100625760003560e01c806301507d481461006757806324dcce6c1461009757806381e7e20e146100b55780638b699416146100e5578063a48ac064146100ef578063e5a0b0bf1461010d575b600080fd5b610081600480360381019061007c9190610313565b610117565b60405161008e919061035b565b60405180910390f35b61009f610137565b6040516100ac919061035b565b60405180910390f35b6100cf60048036038101906100ca9190610313565b61018b565b6040516100dc919061035b565b60405180910390f35b6100ed6101ab565b005b6100f7610204565b604051610104919061035b565b60405180910390f35b610115610257565b005b60006020528060005260406000206000915054906101000a900460ff1681565b6000600160003373ffffffffffffffffffffffffffffffffffffffff1673ffffffffffffffffffffffffffffffffffffffff16815260200190815260200160002060009054906101000a900460ff16905090565b60016020528060005260406000206000915054906101000a900460ff1681565b60016000803373ffffffffffffffffffffffffffffffffffffffff1673ffffffffffffffffffffffffffffffffffffffff16815260200190815260200160002060006101000a81548160ff021916908315150217905550565b60008060003373ffffffffffffffffffffffffffffffffffffffff1673ffffffffffffffffffffffffffffffffffffffff16815260200190815260200160002060009054906101000a900460ff16905090565b60018060003373ffffffffffffffffffffffffffffffffffffffff1673ffffffffffffffffffffffffffffffffffffffff16815260200190815260200160002060006101000a81548160ff021916908315150217905550565b600080fd5b600073ffffffffffffffffffffffffffffffffffffffff82169050919050565b60006102e0826102b5565b9050919050565b6102f0816102d5565b81146102fb57600080fd5b50565b60008135905061030d816102e7565b92915050565b600060208284031215610329576103286102b0565b5b6000610337848285016102fe565b91505092915050565b60008115159050919050565b61035581610340565b82525050565b6000602082019050610370600083018461034c565b9291505056fea2646970667358221220fadb7a7e23ce98421f111c875f561008d58926145d78c6244c93d71da0edc39d64736f6c63430008130033",
  "immutableReferences": {},
  "source": "// SPDX-License-Identifier: GPL-3.0\r\n\r\npragma solidity >=0.7.0 <0.9.0;\r\n\r\ncontract Enrollment{\r\n    \r\n    mapping (address => bool) public politicalParty;\r\n\r\n    mapping (address => bool) public user;\r\n\r\n    function EnrollAspoliticalParty() public {\r\n        politicalParty[msg.sender] = true;\r\n    }\r\n\r\n    function EnrollAsUser() public {\r\n        user[msg.sender] = true;\r\n    }\r\n\r\n    function IsPoliticalParty() public view returns(bool) {\r\n        return politicalParty[msg.sender];\r\n    }\r\n\r\n    function IsUser() public view returns(bool) {\r\n        return user[msg.sender];\r\n     }\r\n}",
  "sourcePath": "D:\\electoral bonds blockchain\\blockchain\\contracts\\Enrollment.sol",
  "compiler": {
    "name": "solc",
    "version": "0.8.19+commit.7dd6d404.Emscripten.clang"
  },
  "schemaVersion": "3.4.16",
  "updatedAt": "2024-10-06T15:43:22.111Z",
  "networkType": "ethereum",
  "devdoc": {
    "kind": "dev",
    "methods": {},
    "version": 1
  },
  "userdoc": {
    "kind": "user",
    "methods": {},
    "version": 1
  }
}